S019000073656E736F72735F696E746572666163652E73726563EE
S11300000C942A000C946E000C94A3000C94D6005B
S11300100C943C000C9457000C943C000C943C0051
S11300200C943C000C943E000C9465010C943C0030
S11300300C943C000C9497020C943C000C943C00EF
S11300400C943C000C943C000C943C000C943C003C
S11300500C943C0011241FBECFE5D8E0DEBFCDBF19
S113006020E0A0E6B0E001C01D92A738B207E1F796
S11300700E942C020C941A030C9400001F920F92FD
S11300800FB60F9211248F93F8941DBC1CBC8BB730
S11300908F738BBF8AB7806C8ABF789488B784606B
S11300A088BF8F910F900FBE0F901F9018951F92CD
S11300B00F920FB60F9211248F939F93809161003A
S11300C090916200019690936200809361009F91E9
S11300D08F910F900FBE0F901F9018951F920F9243
S11300E00FB60F9211245F936F937F938F939F9317
S11300F0AF93BF9305B600FE08C0F8941DBC1CBCAA
S1130100789485B78E7F85BF0FC0F8948CB59DB564
S11301106AE370E00E94F7027093740060937300C6
S113012078948BB78F7B8BBF8AB780648ABFBF916B
S1130130AF919F918F917F916F915F910F900FBEBF
S11301400F901F9018951F920F920FB60F921124C3
S11301505F936F937F938F939F93AF93BF93F89421
S113016005B602FE06C01DBC1CBC85B78B7F85BFCF
S11301700DC08CB59DB56AE370E00E94F7027093E0
S11301807600609375008BB78F778BBF8AB78068D2
S11301908ABF7894BF91AF919F918F917F916F9116
S11301A05F910F900FBE0F901F9018951F920F92A2
S11301B00FB60F9211242F938F939F93EF93FF9376
S11301C0F89405B606FE09C014BC109262001092A1
S11301D0610085B78F7B85BF26C0809161009091B7
S11301E0620024B5820F911D893B9B4018F0109248
S11301F0600019C0E0916000F0E08091610090918E
S1130200620024B5820F911DEE0FFF1FE958FF4FC6
S11302109183808380916000873028F4809160000E
S11302208F5F809360008AB780688ABF7894FF915B
S1130230EF919F918F912F910F900FBE0F901F9070
S113024018950BB606FC14C00BB607FC11C0813020
S1130250910531F485B7836085BF8BB7806407C08F
S1130260029731F485B78C6085BF8BB780688BBFEC
S113027008958DE083BF8DE48CBF89B7826089BF08
S113028008951FBC82E08EBD89B7846089BF1DBC00
S11302901CBC089582E085BD89B7806489BF14BC05
S11302A0089586E886B980E487B9369A3699FECFF0
S11302B0089587B9369A3699FECF24B185B190E076
S11302C0982F8827820F911D08951F920F920FB6C1
S11302D00F9211241F932F933F934F935F936F9328
S11302E07F938F939F93AF93BF93CF93DF93EF93BA
S11302F0FF93C0E0D0E015E08C2F8F5F80640E94F4
S11303005901189F9001199F300D1124A8EEB3E0F4
S11303100E940B034AE096958795779567954A95D1
S1130320D1F7FE01EE0FFF1FEB59FF4F718360837E
S11303302196C730D10501F7809163008F5F8093C8
S11303406300893210F010926300809163008A3058
S113035019F481E090E006C0809163008E3121F4AD
S113036082E090E00E94210188B7836088BFFF91FA
S1130370EF91DF91CF91BF91AF919F918F917F9139
S11303806F915F914F913F912F911F910F900FBEED
S11303900F901F901895EF92FF920F931F93CF9396
S11303A0DF9381EC0E945602E82E5D9BFECF81EC28
S11303B08CB9F894C0E0D0E08E01000F111F0B59E6
S11303C01F4FF801808191810E948002F801808191
S11303D091810E946002E80E2196C730D10561F731
S11303E080917300909174000E9480028091730048
S11303F0909174000E946002F82E80917500909193
S113040076000E94800280917500909176000E948F
S11304106002F80EFE0CC0E0D0E08E01000F111F48
S113042009581F4FF801808191810E948002F801D0
S1130430808191810E946002F80E2196C730D10517
S113044061F778945D9BFECFFCB8DF91CF911F914B
S11304500F91FF90EF9008950E944A020E9451016B
S11304600E9439010E9441010E944A010E946B02CC
S11304709498959885B7806485BF8BB780628BBF4D
S11304807894809164008823E1F30E94CB01109258
S11304906400F7CFA29AA39AA49AA59AA69AA79AB7
S11304A08C9A8D9A8A988B98BA98089590E08823AC
S11304B029F0282F2170920F8695F9CF892F08955E
S11304C020E0009731F0382F3170230F96958795EF
S11304D0F8CF822F089510BC83E389B986E880BDE4
S11304E088E98AB908955D9BFECF8CB908955D9B18
S11304F0FECF8CB90E9456025D9BFECF8CB9089545
S11305005D9BFECF9CB95D9BFECF8CB9089580E0C6
S113051090E001965F9905C08F3F2FEF9207C9F7CE
S113052004C0019611F08CB1089580E008951F92E3
S11305300F920FB60F9211242F933F934F935F9313
S11305406F937F938F939F93AF93BF93CF93DF93D7
S1130550EF93FF935F9A0E948702C82F0E9487023D
S1130560D82F8C2F0E9456028D132EC0C13CF1F05F
S113057098F4C03C49F580EC0E94730280EC0E9420
S11305805602C82F85E50E94730285E50E94560233
S11305908C0F0E94730218C0C03D81F0C13DA1F4CC
S11305A081ED0E94770285B381700DC08091640053
S11305B081110AC081E08093640006C080ED0E942E
S11305C0770285B38E6F85BBFF91EF91DF91CF9159
S11305D0BF91AF919F918F917F916F915F914F9157
S11305E03F912F910F900FBE0F901F901895AA1B4B
S11305F0BB1B51E107C0AA1FBB1FA617B70710F00A
S1130600A61BB70B881F991F5A95A9F7809590953B
S1130610BC01CD010895A29FB001B39FC001A39F67
S1130620700D811D1124911DB29F700D811D112427
S10B0630911D0895F894FFCF19
S9030000FC
